S0150000446F7070656C5F416E616C6F672E73726563FA
S11300000C9434000C9446000C9446000C94460066
S11300100C9446000C9446000C9446000C94460044
S11300200C9446000C9446000C9446000C94460034
S11300300C9446000C9446000C9446000C94460024
S11300400C9446000C9446000C94C0000C9446009A
S11300500C9446000C9474000C9446000C944600D6
S11300600C9446000C94460011241FBECFEFD8E038
S1130070DEBFCDBF21E0A0E0B1E001C01D92AC31F4
S1130080B207E1F70E94EB000C94CB010C94000042
S11300909093030180930201089590930901809342
S11300A00801089570931B0160931A015093050190
S11300B040930401ECE7F0E0108290819064908317
S11300C0811103C0808180628083EAE7F0E080814F
S11300D0876080838081806880838081886080835A
S11300E080818064808308951F920F920FB60F92CF
S11300F011242F933F934F935F936F937F938F9329
S11301009F93AF93BF93EF93FF9320917C002F7045
S1130110309178008091790090E0982F8827832B84
S1130120222319F0213061F015C0E0911A01F091F9
S11301301B010995ECE7F0E080818F5F80830AC0A2
S1130140E0910401F09105010995ECE7F0E080816C
S1130150887F8083EAE7F0E0808180648083FF9178
S1130160EF91BF91AF919F918F917F916F915F912B
S11301704F913F912F910F900FBE0F901F901895A4
S11301801F920F920FB60F9211242F933F934F9308
S11301905F936F937F938F939F93AF93BF93EF93EB
S11301A0FF93E0910001F0910101309719F08091E3
S11301B0C6000995FF91EF91BF91AF919F918F91E7
S11301C07F916F915F914F913F912F910F900FBE4F
S11301D00F901F9018951092C50087E68093C40075
S11301E0E1ECF0E0808188618083E2ECF0E08081E2
S11301F08660808310920101109200014DE450E06A
S113020068E470E081E00E9452007894E3E1F1E058
S113021080E380838AE38183EAE0F1E091E39083E1
S11302208183209102013091030180911101909109
S113023012012817390799F0809102019091030166
S11302409093120180931101809102019091030116
S11302504AE065E171E00E94960181E001C080E01E
S11302604091080150910901209106013091070144
S11302704217530791F080910801909109019093DE
S113028007018093060180910801909109014AE0D9
S11302906CE071E00E94960181E08823E9F180918D
S11302A0C00085FFFCCF8CE08093C600E3E1F1E061
S11302B007C031968091C00085FFFCCF9093C600A3
S11302C090819111F6CF8091C00085FFFCCF8DE025
S11302D08093C6008091C00085FFFCCF8AE08093A4
S11302E0C600EAE0F1E007C031968091C00085FFC6
S11302F0FCCF9093C60090819111F6CF8091C000FD
S113030085FFFCCF8DE08093C6008091C00085FFFF
S1130310FCCF8AE08093C6002FEF8DEE92E021504F
S113032080409040E1F700C000007BCFBB274A30FB
S113033031F4992322F4BDE2909581959F4F0C945A
S1130340A201BB27FB015527AA27880F991FAA1FC3
S1130350A41710F0A41B83955051B9F7A05DAA33DC
S113036008F0A95DA193009779F7B111B1931192A7
S1130370CB010C94BB01DC01FC01672F7191772345
S1130380E1F7329704C07C916D9370836291AE174C
S10D0390BF07C8F30895F894FFCFE7
S9030000FC
