S00D0000416D70656C2E7372656328
S11300000C9434000C9446000C9446000C94460066
S11300100C9446000C9446000C9446000C94460044
S11300200C9446000C9446000C9446000C94460034
S11300300C9446000C9446000C9446000C94460024
S11300400C9446000C9446000C9446000C94460014
S11300500C9446000C9446000C9446000C94460004
S11300600C9446000C94460011241FBECFEFD8E038
S1130070DEBFCDBF21E0A0E0B1E001C01D92A13000
S1130080B207E1F70E948B000C9495000C940000D9
S11300908CE0809300018CE284B915B808958091B6
S11300A00001883091F018F4843029F008958C30E0
S11300B061F0803299F42FEF83ED90E3215080407A
S11300C09040E1F700C0000008952FEF83EC99E021
S11300D0215080409040E1F700C0000008958091D5
S11300E00001883061F018F4843069F008958C3090
S11300F071F0803279F488E080930001089584E0FF
S11301008093000108958CE080930001089580E2BB
S11301108093000108950E9448008091000185B9F0
S11101200E944F000E946F00F8CFF894FFCFAA
S9030000FC
