S01800005461737465725F496E746572727570742E737265636D
S11300000C9434000C9461000C9488000C94460009
S11300100C9446000C9446000C9446000C94460044
S11300200C9446000C9446000C9446000C94460034
S11300300C9446000C9446000C9446000C94460024
S11300400C9446000C9446000C9446000C94460014
S11300500C9446000C9446000C9446000C94460004
S11300600C9446000C94460011241FBECFEFD8E038
S1130070DEBFCDBF21E0A0E0B1E001C01D92A430FD
S1130080B207E1F70E94BA000C94BD000C94000082
S113009085B1806285B9089585B18F7D85B908954C
S11300A02AE02093690023E02DBB2BB12C602BB9EF
S11300B09093030180930201709301016093000106
S11300C008951F920F920FB60F9211242F933F930E
S11300D04F935F936F937F938F939F93AF93BF934C
S11300E0EF93FF93E0910201F09103010995FF91D1
S11300F0EF91BF91AF919F918F917F916F915F919C
S11301004F913F912F910F900FBE0F901F90189514
S11301101F920F920FB60F9211242F933F934F9378
S11301205F936F937F938F939F93AF93BF93EF935B
S1130130FF93E0910001F09101010995FF91EF9186
S1130140BF91AF919F918F917F916F915F914F91EB
S11301503F912F910F900FBE0F901F9018956CE454
S113016070E088E490E00E945000789480E284B9C2
S111017085B908950E94AF00FFCFF894FFCF29
S9030000FC
