:100000000C9434000C943E000C943E000C943E0082
:100010000C943E000C943E000C943E000C943E0068
:100020000C943E000C943E000C943E000C943E0058
:100030000C943E000C943E000C943E000C943E0048
:100040000C943E000C943E000C943E000C943E0038
:100050000C943E000C943E000C943E000C943E0028
:100060000C943E000C943E0011241FBECFEFD8E04C
:10007000DEBFCDBF0E9453000C9460000C940000C2
:1000800084B1806284B98AB18B7F8AB98AB1877F53
:100090008AB985B18F7D85B98BB184608BB98BB1FD
:1000A00088608BB908950E9440004A9B03C085B1C7
:1000B000806285B94B9BF9CF85B18F7D85B9F5CF2E
:0400C000F894FFCFE2
:00000001FF
