S01600005461737465725F416266726167652E7372656394
S11300000C9434000C943E000C943E000C943E007E
S11300100C943E000C943E000C943E000C943E0064
S11300200C943E000C943E000C943E000C943E0054
S11300300C943E000C943E000C943E000C943E0044
S11300400C943E000C943E000C943E000C943E0034
S11300500C943E000C943E000C943E000C943E0024
S11300600C943E000C943E0011241FBECFEFD8E048
S1130070DEBFCDBF0E9440000C9453000C940000DE
S113008080E284B91AB88CE08BB985B1806285B9F5
S11300904A9903C085B1806285B94B99F9CF85B17E
S10D00A08F7D85B9F5CFF894FFCFEA
S9030000FC
