S01600005461737465725F416266726167652E7372656394
S11300000C9434000C943E000C943E000C943E007E
S11300100C943E000C943E000C943E000C943E0064
S11300200C943E000C943E000C943E000C943E0054
S11300300C943E000C943E000C943E000C943E0044
S11300400C943E000C943E000C943E000C943E0034
S11300500C943E000C943E000C943E000C943E0024
S11300600C943E000C943E0011241FBECFEFD8E048
S1130070DEBFCDBF0E9448000C944B000C940000DE
S113008080E284B91AB88CE08BB985B185B908953A
S10D00900E944000FFCFF894FFCF58
S9030000FC
