S01600004C65645F4672657175656E7A656E2E7372656377
S11300000C9434000C9449000C9449000C9449005D
S11300100C9449000C9449000C9449000C94490038
S11300200C9449000C9449000C9449000C94490028
S11300300C9449000C9449000C9449000C94490018
S11300400C9449000C9449000C9449000C94490008
S11300500C9449000C9449000C9449000C944900F8
S11300600C9449000C94490011241FBECFEFD8E032
S1130070DEBFCDBF11E0A0E0B1E0E0ECF0E002C0F3
S113008005900D92A030B107D9F70E944B000C9453
S11300905E000C94000080E284B91AB88CE08BB93D
S11300A085B1806285B94A9903C085B1806285B9FA
S11300B04B99F9CF85B18F7D85B9F5CFF894FFCFF2
S9030000FC
