S01000004C6175665F4C65642E7372656318
S11300000C942E000C944B000C944B000C944B005D
S11300100C944B000C944B000C944B000C944B0030
S11300200C944B000C944B000C944B000C944B0020
S11300300C944B000C944B000C944B000C944B0010
S11300400C944B000C944B000C944B000C944B0000
S11300500C944B000C944B000C944B0011241FBEC9
S1130060CFEFD8E0DEBFCDBF11E0A0E0B1E0EAEE13
S1130070F0E002C005900D92A031B107D9F721E05C
S1130080A0E1B1E001C01D92A231B207E1F70E94E4
S11300904D000C9473000C9400008FE384B981E14B
S11300A085B980911001909111019C012F5F3F4F00
S11300B030931101209310018F709078992324F4C8
S11300C00197806F9F6F0196FC01E050FF4F808184
S11300D085B92FEF83EC99E0215080409040E1F7FF
S10D00E000C00000DECFF894FFCF4B
S11300EA1112141821222428282422211814121146
S9030000FC
